:020000040800F2
:1000000000000220A54E0008510C00085F0C0008FB
:10001000650C00086B0C0008710C00080000000063
:10002000000000000000000000000000770C000845
:10003000850C000800000000930C0008A10C0008CB
:10004000F54E0008F54E0008F54E0008F54E000884
:10005000F54E0008F54E0008F54E0008F54E000874
:10006000F54E0008F54E0008F54E0008F54E000864
:10007000F54E0008F54E0008F54E0008F54E000854
:10008000F54E0008F54E0008F54E0008F54E000844
:10009000F54E0008F54E0008F54E0008F54E000834
:1000A000F54E0008F54E0008F54E0008F54E000824
:1000B000F54E0008F54E0008F54E0008F54E000814
:1000C000F54E0008F54E0008F54E0008F54E000804
:1000D000F54E0008AD0C0008F54E0008F54E00087E
:1000E000F54E0008F54E0008F54E0008F54E0008E4
:1000F000F54E0008F54E0008F54E0008F54E0008D4
:10010000F54E0008F54E0008F54E0008F54E0008C3
:10011000F54E0008F54E0008F54E0008F54E0008B3
:10012000F54E0008F54E0008C10C0008F54E000819
:10013000F54E00080000000000000000F54E000829
:10014000F54E0008F54E0008F54E0008F54E000883
:10015000F54E0008F54E0008D50C0008F54E0008D5
:10016000F54E0008F54E0008F54E0008F54E000863
:10017000F54E0008F54E0008F54E0008000000009E
:1001800000000000F54E0008000000000000000024
:10019000F54E00080000000000000000F54E0008C9
:1001A000000000000000000000000000F54E000804
:1001B000E90C0008F54E0008F54E0008F54E000861
:0401C000F54E0008F0
:1001C40010B5054C237833B9044B13B10448AFF38D
:1001D40000800123237010BD0C00002000000000EB
:1001E400684F000808B5034B1BB103490348AFF33C
:1001F400008008BD0000000010000020684F0008C7
:10020400034613F8012B002AFBD1181A0138704752
:1002140053B94AB9002908BF00281CBF4FF0FF3169
:100224004FF0FF3000F07AB9ADF1080C6DE904CE5F
:1002340000F006F8DDF804E0DDE9022304B07047BD
:100244002DE9F0478C460D460446089E002B51D1FB
:100254008A4217466DD9B2FA82FEBEF1000F0BD066
:10026400CEF1200C01FA0EF520FA0CFC02FA0EF77E
:100274004CEA050C00FA0EF44FEA174A250CBCFBB5
:10028400FAF81FFA87F90AFB18CC45EA0C4508FB73
:1002940009F3AB420AD9ED1908F1FF3280F023814A
:1002A400AB4240F22081A8F102083D44ED1AA4B209
:1002B400B5FBFAF00AFB105544EA054400FB09F9C2
:1002C400A14509D9E41900F1FF3380F00A81A14561
:1002D40040F2078102383C44A4EB090440EA084098
:1002E4000021002E61D024FA0EF4002334607360E0
:1002F400BDE8F0878B4207D9002E54D0002186E850
:1003040021000846BDE8F087B3FA83F1002940F0E4
:100314008E80AB4202D3824200F2FA80841A65EBEB
:1003240003050120AC46002E3FD086E81010BDE83E
:10033400F08712B90127B7FBF2F7B7FA87FEBEF1CF
:10034400000F34D1EB1B3A0C1FFA87FC0121B3FBDD
:10035400F2F8250C02FB183345EA03450CFB08F3BD
:10036400AB4207D9ED1908F1FF3002D2AB4200F2DB
:10037400D1808046ED1AA3B2B5FBF2F002FB105512
:1003840043EA05440CFB00FCA44507D9E41900F139
:10039400FF3302D2A44500F2B8801846A4EB0C0443
:1003A40040EA08409DE731463046BDE8F087CEF18B
:1003B400200405FA0EF307FA0EF720FA04F83A0CB3
:1003C40025FA04F448EA0308B4FBF2F14FEA1845AD
:1003D40002FB11441FFA87FC45EA044501FB0CF3B8
:1003E400AB4200FA0EF409D9ED1901F1FF3080F0A7
:1003F4008A80AB4240F2878002393D44EB1A1FFAEF
:1004040088F5B3FBF2F002FB103345EA034500FB29
:100414000CF3AB4207D9ED1900F1FF386FD2AB42B0
:100424006DD902383D44EB1A40EA01418FE7C1F12E
:10043400200722FA07F88B4005FA01F448EA03037F
:1004440020FA07FE4FEA134CFD404EEA040EB5FBBA
:10045400FCF94FEA1E440CFB19551FFA83F844EAD1
:10046400054509FB08F4AC4202FA01F200FA01FA6C
:1004740008D9ED1809F1FF3043D2AC4241D9A9F1B2
:1004840002091D442D1B1FFA8EFEB5FBFCF00CFB6C
:1004940010554EEA054400FB08F8A04507D9E418B6
:1004A40000F1FF3529D2A04527D902381C4440EA7F
:1004B4000940A4EB0804A0FB02894C45C6464D46FE
:1004C40015D312D056B1BAEB0E0364EB050404FA4B
:1004D40007F7CB401F43CC40376074600021BDE870
:1004E400F0871846F8E69046E0E6C245EAD2B8EB53
:1004F400020E69EB03050138E4E72846D7E74046D6
:1005040091E78146BEE7014678E702383C4445E777
:10051400084608E7A8F102083D442BE7704700BFEE
:1005240080B483B000AF7860044B0A221A7000BF15
:100534000C37BD465DF8047B704700BFF400002013
:1005440080B483B000AF7860044B0A221A7000BFF5
:100554000C37BD465DF8047B704700BFF6000020F1
:1005640080B582B000AF78604FF4967001F0C8FA9D
:100574004FF40051014802F03CF9F5E70004024051
:1005840080B483B000AF7860044B0A221A7000BFB5
:100594000C37BD465DF8047B704700BFF7000020B0
:1005A40080B483B000AF7860044B0A221A7000BF95
:1005B4000C37BD465DF8047B704700BFF500002092
:1005C40080B483B000AF7860044B02221A7000BF7D
:1005D4000C37BD465DF8047B704700BF280000203F
:1005E40080B582B000AF00237B60104A0F4B1B6BB9
:1005F40043F4800313630D4B1B6B03F480037B6094
:100604007B68002200213A2001F075FB3A2001F0BA
:100614008EFB00220021462001F06DFB462001F0F4
:1006240086FB00BF0837BD4680BD00BF00380240CE
:1006340080B58AB000AF07F1140300221A605A6033
:100644009A60DA601A6100233B612E4A2D4B1B6BC2
:1006540043F0100313632B4B1B6B03F010033B613C
:100664003B690023FB60274A264B1B6B43F00203C4
:100674001363244B1B6B03F00203FB60FB68002332
:10068400BB60204A1F4B1B6B43F0010313631D4BDC
:100694001B6B03F00103BB60BB6800237B60194A3A
:1006A400184B1B6B43F004031363164B1B6B03F0D3
:1006B40004037B607B6800233B60124A114B1B6B75
:1006C40043F0080313630F4B1B6B03F008033B60F9
:1006D4003B6800224FF400510B4802F071F84FF4CC
:1006E40000537B610123BB610023FB6100233B6258
:1006F40007F114031946044801F0D0FE00BF28375F
:10070400BD4680BD0038024000040240F0B5ADF59E
:100714000F7D00AF01F082F900F006F9FFF788FFC2
:10072400FFF75EFF00F07AF900F0FCFA744BC7F8AB
:100734001832744BC7F81C32734BC7F82032734B12
:10074400C7F8243207F5867318464FF480731A46A7
:10075400002104F0FEFB07F108036D4A1846114618
:1007640040F201131A4604F0E9FB4FF000034FF086
:10077400000407F50C7282E8180007F503730021E2
:10078400184600F07DFB0346A7F82E3207F5867263
:1007940007F503704FF48073002100F0C6FC034694
:1007A400A7F82C325B4B5C4A14469E4604F1200C9D
:1007B400754626460FCE28606960AA60EB60103447
:1007C4000EF1100E6445F3D173462246106818608A
:1007D400524B0B221A704F48FFF712FD03469BB28F
:1007E4001A464C494E4803F0A4FD0346002B02D0A0
:1007F40000F00CF905E000BF484B1B78DBB20A2B74
:10080400FAD1464B0B221A7007F586734FF48072A7
:100814001946434803F08DFD0346002B02D000F037
:10082400F5F805E000BF3D4B1B78DBB20A2BFAD18B
:1008340007F1080207F503704FF48073002100F0FC
:10084400E3FC0346A7F82A3207F5867207F503701E
:100854004FF48073002100F068FC0346A7F82C32A3
:100864002C4B2D4A14469E4604F1200C7546264610
:100874000FCE28606960AA60EB6010340EF1100E90
:100884006445F3D17346224610681860234B0B224B
:100894001A702048FFF7B4FC03469BB21A461D4960
:1008A4001F4803F046FD0346002B02D000F0AEF8CB
:1008B40005E000BF194B1B78DBB20A2BFAD1174BAA
:1008C4000B221A7007F586734FF480721946144888
:1008D40003F02FFD0346002B02D000F097F805E04B
:1008E40000BF0E4B1B78DBB20A2BFAD14FF47A709F
:1008F40001F006F94FF400510A4801F07AFFF5E7D8
:100904007D140008D916000825170008711700087F
:10091400804F00082C00002084500008F4000020C0
:10092400040200200004024080B594B000AF07F137
:100934001C0334220021184604F00BFB07F10803C2
:1009440000221A605A609A60DA601A6100237B60A0
:100954002C4A2C4B1B6C43F080531364294B1B6CA7
:1009640003F080537B607B6800233B60264A264B60
:100974001B6843F440431360234B1B6803F4404358
:100984003B603B680223FB610123BB621023FB62D3
:1009940002237B630023BB630823FB63B4233B6410
:1009A40002237B640223BB640223FB6407F11C0360
:1009B400184603F017FA0346002B01D000F026F87E
:1009C40001F032FF0346002B01D000F01FF80F2383
:1009D400BB600223FB6000233B614FF4A0537B61A7
:1009E4004FF48053BB6107F108030521184602F058
:1009F4008DFF0346002B01D000F008F800BF5037EC
:100A0400BD4680BD003802400070004080B400AF95
:100A140000BFBD465DF8047B7047000080B500AFA1
:100A2400124B134A1A60114B01225A600F4B0122D8
:100A34009A600E4B0022DA600C4B17221A610B4BA2
:100A440000225A61094B00229A61084B8022DA6124
:100A5400064B00221A62054801F036FF0346002BBC
:100A640001D0FFF7D3FF00BF80BD00BF58010020B5
:100A7400001000A080B58CB000AF786007F11C03B3
:100A840000221A605A609A60DA601A617B681B68F7
:100A9400534A934240F0A0800023BB61514A514B1A
:100AA4009B6B43F0020393634E4B9B6B03F0020377
:100AB400BB61BB6900237B614A4A4A4B1B6B43F011
:100AC40010031363474B1B6B03F010037B617B69BB
:100AD40000233B61434A434B1B6B43F00403136302
:100AE400404B1B6B03F004033B613B690023FB6039
:100AF4003C4A3C4B1B6B43F008031363394B1B6BA1
:100B040003F00803FB60FB684FF4F063FB6102230E
:100B14003B6200237B620323BB620A23FB6207F16F
:100B24001C031946304801F0B9FC4FF40063FB6123
:100B340002233B6200237B620323BB620923FB6223
:100B440007F11C031946294801F0A8FC0823FB619E
:100B540002233B6200237B620323BB620923FB6203
:100B640007F11C031946224801F098FC214B224A44
:100B74001A60204B4FF0C0625A601E4B00229A60EC
:100B84001C4B0022DA601B4B4FF480621A61194B34
:100B940000225A61174B00229A61164B0022DA6137
:100BA400144B00221A62134B00225A62114801F0BE
:100BB400D9F80346002B01D0FFF728FF7B680D4AC4
:100BC400DA630C4A7B689363002200215C2001F005
:100BD40092F85C2001F0ABF800BF3037BD4680BD11
:100BE400001000A00038024000100240000802403B
:100BF400000C0240F8000020B864024080B483B0C6
:100C040000AF00237B60104A0F4B5B6C43F48043BE
:100C140053640D4B5B6C03F480437B607B6800235F
:100C24003B60094A084B1B6C43F080531364064B2A
:100C34001B6C03F080533B603B6800BF0C37BD4620
:100C44005DF8047B704700BF0038024080B400AFF9
:100C540000BFBD465DF8047B704780B400AFFEE77B
:100C640080B400AFFEE780B400AFFEE780B400AF0D
:100C7400FEE780B400AF00BFBD465DF8047B70475B
:100C840080B400AF00BFBD465DF8047B704780B4FC
:100C940000AF00BFBD465DF8047B704780B500AF70
:100CA40000F00EFF00BF80BD80B500AF024803F026
:100CB40085FB00BF80BD00BF0402002080B500AFEB
:100CC400024801F077F900BF80BD00BFA4010020F5
:100CD40080B500AF024801F06DF900BF80BD00BFD0
:100CE400F800002080B500AF024801F069FE00BFA3
:100CF40080BD00BF5801002080B400AF084A084BF3
:100D0400D3F8883043F47003C2F88830044B4FF0B2
:100D140000629A6000BFBD465DF8047B704700BF67
:100D240000ED00E080B500AF114B124A1A60104B81
:100D34004FF4E1325A600E4B00229A600C4B0022B1
:100D4400DA600B4B00221A61094B0C225A61084BE2
:100D540000229A61064B0022DA61054803F09CFAEE
:100D64000346002B01D0FFF751FE00BF80BD00BF3A
:100D7400040200200010014080B58AB000AF786002
:100D840007F1140300221A605A609A60DA601A614B
:100D94007B681B68354A934263D100233B61344A24
:100DA400334B5B6C43F010035364314B5B6C03F0C7
:100DB40010033B613B690023FB602D4A2C4B1B6BEA
:100DC40043F0010313632A4B1B6B03F00103FB6025
:100DD400FB684FF4C0637B610223BB610023FB61AA
:100DE40003233B6207237B6207F11403194621485E
:100DF40001F054FB204B214A1A601F4B4FF0006254
:100E04005A601D4B00229A601B4B0022DA601A4B79
:100E14004FF480621A61184B00225A61164B00226B
:100E24009A61154B4FF48072DA61134B00221A62F7
:100E3400114B00225A62104800F094FF0346002B25
:100E440001D0FFF7E3FD7B680B4A5A630A4A7B68CB
:100E5400936300220021252000F04DFF252000F09F
:100E640066FF00BF2837BD4680BD00BF00100140AB
:100E74000038024000000240A40100204064024007
:100E840080B584B000AF786039600023FB813A6894
:100E94002021786800F00CF80346FB81FB89184692
:100EA40000F074FA034618461037BD4680BD0000B2
:100EB40080B596B000AFF8600B467A60FB720023F1
:100EC400A7F856304FF6FF71F86800F015FA03469C
:100ED400A7F85630B7F85630002B55D1F86800F013
:100EE40081F80346A7F85630B7F85630002B4BD19B
:100EF40002233B6200237B6300237B6201233B6369
:100F04000023BB630023BB620023FB63FB7A7B618A
:100F14000123FB6200233B6400237B640023BB6446
:100F24007B68BB610023FB614FF6FF73FB64FB7AB4
:100F3400602B17D0602B04DC202B07D0522B09D058
:100F440015E0C72B0ED0D82B08D010E04FF4C8738F
:100F54003B650FE04FF4C8633B650BE04FF4FA6365
:100F64003B6507E00D4B3B6500233B6302E041F228
:100F740009030FE0FB68DB6807F11402396D1046C2
:100F840098470346A7F85630B7F85630184600F08D
:100F9400FDF9034618465837BD4680BD400D030091
:100FA40080B584B000AF78600023FB814FF6FF71F9
:100FB400786800F0A1F90346FB81FB89002B08D176
:100FC40007F10D031A460221786800F050F8034631
:100FD400FB81FB89184600F0D9F9034618461037FF
:100FE400BD4680BD80B592B000AF78600023A7F8FD
:100FF40046304FF6FF71786800F07EF90346A7F893
:101004004630B7F84630002B27D10F233B64022328
:101014007B610023BB620023BB610623BB6000230A
:101024007B620023FB600023FB620023FB6100233F
:101034003B6301233B6200237B630023BB630023E8
:10104400FB6300233B617B68DB6807F10802396CB2
:10105400104698470346A7F84630B7F84630184676
:1010640000F094F9034618464837BD4680BD80B564
:1010740094B000AFF8600B467A60FB720023A7F8C7
:101084004E304FF6FF71F86800F036F90346A7F8C2
:101094004E30B7F84E30002B3DD10A23BB640223F7
:1010A400FB6100233B6300233B62FB7A012B06D0E8
:1010B400FB7A022B01D1352302E0152300E005233E
:1010C4003B610023FB6200237B6101237B630023DC
:1010D4007B620123BB630123BB620023FB63002308
:1010E4003B6400237B640023BB61FB68DB6807F17E
:1010F4001002B96C104698470346A7F84E30B7F86B
:101104004E30002B07D1FB681B69B96C786898478F
:101114000346A7F84E30B7F84E30184600F036F9BB
:10112400034618465037BD4680BD80B594B000AF25
:10113400F860B9607A603B600023A7F84E304FF640
:10114400FF71F86800F0D8F80346A7F84E30B7F8F6
:101154004E30002B4ED1F868FFF722FF0346A7F864
:101164004E30B7F84E30002B44D1B7F84E30002B38
:1011740040D14FF6FF71F86800F0BEF80346A7F8B7
:101184004E30B7F84E30002B34D14FF0FF33BB64F0
:101194000223FB6103233B6300233B62EB233B619C
:1011A4000323FB62BB687B6103237B6304237B62B1
:1011B4003B68BB630123BB620023FB6300233B64E6
:1011C40000237B64F023BB61FB68DB6807F110023A
:1011D400B96C104698470346A7F84E30B7F84E301E
:1011E400002B07D1FB681B69B96C786898470346E4
:1011F400A7F84E30B7F84E30184600F0C7F803464B
:1012040018465037BD4680BD80B594B000AFF86035
:10121400B9607A603B600023A7F84E304FF6FF7147
:10122400F86800F069F80346A7F84E30B7F84E3076
:10123400002B57D1F868FFF7B3FE0346A7F84E30EA
:10124400B7F84E30002B4DD1B7F84E30002B49D1B2
:101254004FF6FF71F86800F04FF80346A7F84E30D8
:10126400B7F84E30002B3DD1F868FFF7BBFE0346BC
:10127400A7F84E30B7F84E30002B33D10323BB64AC
:101284000223FB6100233B6300233B6232233B6167
:101294000123FB62BB687B6103237B6300237B62C6
:1012A4003B68BB630123BB620023FB6300233B64F5
:1012B40000237B64F023BB61FB68DB6807F1100249
:1012C400B96C104698470346A7F84E30B7F84E302D
:1012D400002B07D1FB685B69B96C786898470346B3
:1012E400A7F84E30B7F84E30184600F04FF80346D2
:1012F40018465037BD4680BD80B598B000AF7860C1
:1013040039600023A7F85E300123FB613B683B6131
:101314000123FB600023BB600023BB6101237B61CD
:101324000223FB6200233B6400233B6305233B62EF
:101334000023FB6300237B6201237B6400237B6324
:101344000123BB640123BB630023FB6400233B65CF
:1013540000237B650023BB620B4BBB657B689B69E9
:1013640007F1080107F12000BA6D98470346A7F872
:101374005E30B7F85E30184600F008F803461846A9
:101384006037BD4680BD00BF400D030080B483B00C
:1013940000AF78607B682F4A93423DD02D4A934238
:1013A40012D82D4A93422BD02B4A934205D8002BB6
:1013B40021D02A4A934220D043E0294A934225D09F
:1013C400274A934225D81EE0264A93422DD0254A27
:1013D400934206D8244A934221D0244A934221D0EE
:1013E4002FE0234A934226D0214A934220D3214A14
:1013F400934223D025E0002325E041F2020322E0BA
:1014040041F202031FE041F203031CE041F2010335
:1014140019E041F2040316E041F2040313E041F23F
:10142400050310E041F205030DE041F206030AE072
:1014340041F2080307E041F2060304E041F20E031F
:1014440001E07B689BB218460C37BD465DF8047B0F
:10145400704700BF1D200100192001001820010061
:101464001B200100202001001E2001001F2001007C
:10147400222001002320010080B592B000AF7860E3
:10148400396000237B647B685B683B617B681B6815
:10149400FB607B689B687B617B685B693B627B6804
:1014A4009B6A7B637B68DB68032B1AD801A252F822
:1014B40023F000BFC9140008CF140008D714000893
:1014C400DF1400080023BB610DE04FF48053BB61BF
:1014D40009E04FF40053BB6105E04FF44053BB6196
:1014E40001E0784BEAE07B68DB69032B19D801A2A1
:1014F40052F823F0091500080F1500081715000805
:101504001F1500080023BB620DE04FF48063BB622B
:1015140009E04FF40063BB6205E04FF44063BB6233
:1015240001E0684BCAE07B681B6A032B19D801A24F
:1015340052F823F0491500084F1500085715000804
:101544005F1500080023FB620DE04FF48043FB624B
:1015540009E04FF40043FB6205E04FF44043FB62B3
:1015640001E0584BAAE07B681B69032B19D801A240
:1015740052F823F0891500088F1500089715000804
:101584009F1500080023FB610DE04FF48033FB61DD
:1015940009E04FF40033FB6105E04FF44033FB6195
:1015A40001E0484B8AE07B685B6A032B19D801A2EF
:1015B40052F823F0C9150008CF150008D715000804
:1015C400DF15000800233B630DE04FF080733B639D
:1015D40009E04FF000733B6305E04FF040733B6359
:1015E40001E0384B6AE07B689B69032B19D801A2A0
:1015F40052F823F0091600080F1600081716000801
:101604001F16000800237B620DE04FF480737B6299
:1016140009E04FF400737B6205E04FF440737B6292
:1016240001E0284B4AE07B68DB6A002B02D0012BE7
:1016340003D006E00023BB6305E04FF00043BB6327
:1016440001E0204B3AE07B681B6B002B02D0012B9E
:1016540003D006E00023FB6305E04FF08043FB6307
:1016640001E0184B2AE07B685B6B002B02D0012B56
:1016740003D006E000233B6405E04FF080533B6455
:1016840001E0104B1AE0104B0B221A7007F10C0307
:1016940019460E4801F054FB0346002B01D00C4BB5
:1016A4000CE07B689B6A002B05D100BF064B1B78BE
:1016B400DBB20A2BFAD100237B647B6C18464837D3
:1016C400BD4680BD22200100F50000205801002005
:1016D4002020010080B584B000AF78603960002319
:1016E400FB600C4B0B221A7079680B4801F090FCDC
:1016F4000346002B01D0094B08E000BF054B1B78C3
:10170400DBB20A2BFAD10023FB60FB6818461037C2
:10171400BD4680BDF6000020580100201E200100B7
:1017240080B584B000AF786039600023FB600C4B57
:101734000B221A7079680B4801F068FB0346002BF2
:1017440001D0094B08E000BF054B1B78DBB20A2B24
:10175400FAD10023FB60FB6818461037BD4680BDF4
:10176400F7000020580100201C20010080B59AB029
:1017740000AFF860B9607A6000237B66BB689B6841
:10178400FB61BB685B68BB61BB681B687B61BB6852
:10179400DB683B62BB685B69002B02D0012B03D082
:1017A40006E00023BB6205E04FF48003BB6201E066
:1017B400964B27E1BB681B69002B02D0012B03D099
:1017C40006E000237B6205E04FF400037B6201E046
:1017D4008E4B17E1FB685B683B63FB681B68FB622D
:1017E400FB689B687B63FB685B693B64FB689B6A83
:1017F4007B65FB68DB68032B19D801A252F823F040
:10180400151800081B180008231800082B180008D6
:101814000023BB630DE04FF48053BB6309E04FF436
:101824000053BB6305E04FF44053BB6301E0774BC7
:10183400E8E0FB68DB69032B19D801A252F823F016
:10184400551800085B180008631800086B18000896
:101854000023BB640DE04FF48063BB6409E04FF4E4
:101864000063BB6405E04FF44063BB6401E0674B75
:10187400C8E0FB681B6A032B19D801A252F823F0B5
:10188400951800089B180008A3180008AB18000856
:101894000023FB640DE04FF48043FB6409E04FF444
:1018A4000043FB6405E04FF44043FB6401E0574B05
:1018B400A8E0FB681B69032B19D801A252F823F096
:1018C400D5180008DB180008E3180008EB18000816
:1018D4000023FB630DE04FF48033FB6309E04FF416
:1018E4000033FB6305E04FF44033FB6301E0474BF7
:1018F40088E0FB685B6A032B19D801A252F823F035
:10190400151900081B190008231900082B190008D1
:1019140000233B650DE04FF080733B6509E04FF019
:1019240000733B6505E04FF040733B6501E0374BC6
:1019340068E0FB689B69032B19D801A252F823F0D5
:10194400551900085B190008631900086B19000891
:1019540000237B640DE04FF480737B6409E04FF453
:1019640000737B6405E04FF440737B6401E0274B14
:1019740048E0FB68DB6A002B02D0012B03D006E0B1
:101984000023BB6505E04FF00043BB6501E01F4B3E
:1019940038E0FB681B6B002B02D0012B03D006E060
:1019A4000023FB6505E04FF08043FB6501E0174B26
:1019B40028E0FB685B6B002B02D0012B03D006E010
:1019C40000233B6605E04FF080533B6601E00F4B7C
:1019D40018E00F4B03221A7007F1140207F12C03CD
:1019E40019460C4801F022FC0346002B01D00A4B97
:1019F40008E000BF064B1B78DBB2022BFAD10023B0
:101A04007B667B6E18466837BD4680BD2220010088
:101A140028000020580100202320010080B500AFD9
:101A24000E4A0E4B1B6843F4007313600B4A0B4BB6
:101A34001B6843F480631360084A084B1B6843F433
:101A440080731360032000F04BF9002000F008F8C5
:101A5400FFF7D4F80023184680BD00BF003C0240C5
:101A640080B582B000AF7860124B1A68124B1B78B5
:101A740019464FF47A73B3FBF1F3B2FBF3F3184650
:101A840000F063F90346002B01D001230EE07B68CC
:101A94000F2B0AD8002279684FF0FF3000F02BF9A1
:101AA400064A7B681360002300E0012318460837C8
:101AB400BD4680BD00000020080000200400002076
:101AC40080B400AF064B1B781A46064B1B681344C0
:101AD400044A136000BFBD465DF8047B704700BF35
:101AE400080000204402002080B400AF034B1B68B0
:101AF4001846BD465DF8047B704700BF44020020D1
:101B040080B584B000AF7860FFF7EEFFB8607B6803
:101B1400FB60FB68B3F1FF3F05D0094B1B781A4605
:101B2400FB681344FB6000BFFFF7DEFF0246BB689F
:101B3400D21AFB689A42F7D300BF1037BD4680BD66
:101B44000800002080B485B000AF78607B6803F0A3
:101B54000703FB600C4BDB68BB60BA684FF6FF03FE
:101B64001340BB60FB681A02BB68134343F0BF63B6
:101B740043F40033BB60044ABB68D36000BF14372E
:101B8400BD465DF8047B704700ED00E080B400AF13
:101B9400044BDB681B0A03F007031846BD465DF8D7
:101BA400047B704700ED00E080B483B000AF0346CF
:101BB400FB7197F90730002B0BDB094997F90730C4
:101BC4005B09FA7902F01F02012000FA02F241F8DF
:101BD400232000BF0C37BD465DF8047B704700BF6F
:101BE40000E100E080B483B000AF03463960FB71CC
:101BF40097F90730002B0ADB0D4997F907303A684B
:101C0400D2B21201D2B20B4483F800230AE009498C
:101C1400FB7903F00F03043B3A68D2B21201D2B24B
:101C24000B441A7600BF0C37BD465DF8047B704741
:101C340000E100E000ED00E080B489B000AFF8609E
:101C4400B9607A60FB6803F00703FB61FB69C3F1C9
:101C54000703042B28BF0423BB61FB690433062B51
:101C640002D9FB69033B00E000237B610122BB69CD
:101C740002FA03F35A1EBB681A407B699A40012199
:101C84007B6901FA03F3591E7B680B401343184622
:101C94002437BD465DF8047B7047000080B582B0F0
:101CA40000AF78607B68013BB3F1807F01D30123EF
:101CB4000FE00A4A7B68013B53600F214FF0FF306D
:101CC400FFF790FF054B00229A60044B07221A602D
:101CD400002318460837BD4680BD00BF10E000E071
:101CE40080B582B000AF78607868FFF72BFF00BF43
:101CF4000837BD4680BD80B586B000AF0346B960E5
:101D04007A60FB7300237B61FFF740FF78617A6898
:101D1400B9687869FFF790FF024697F90F301146CA
:101D24001846FFF75FFF00BF1837BD4680BD80B57A
:101D340082B000AF0346FB7197F907301846FFF7EE
:101D440033FF00BF0837BD4680BD80B582B000AF09
:101D540078607868FFF7A2FF034618460837BD4647
:101D640080BD000080B586B000AF786000237B6141
:101D7400FFF7BAFE38617B68002B01D1012399E09B
:101D84007B68002283F834207B68022283F83520A4
:101D94007B681B687A681268126822F001021A6074
:101DA4000FE0FFF7A1FE02463B69D31A052B08D9C1
:101DB4007B6820225A657B68032283F8352003233D
:101DC40078E07B681B681B6803F00103002BE8D1F3
:101DD4007B681B681B687B617A69384B13407B61A5
:101DE4007B685A687B689B681A437B68DB681A4384
:101DF4007B681B691A437B685B691A437B689B6930
:101E04001A437B68DB691A437B681B6A13437A694C
:101E140013437B617B685B6A042B07D17B68DA6AB6
:101E24007B681B6B13437A6913437B617B681B6874
:101E34007A691A607B681B685B697B617B6923F044
:101E440007037B617B685B6A7A6913437B617B6808
:101E54005B6A042B17D17B689B6A7A6913437B61A5
:101E64007B68DB6A002B0ED0786800F09DFA03468D
:101E7400002B08D07B6840225A657B68012283F8D6
:101E84003520012316E07B681B687A695A617868FB
:101E940000F054FA0346FB607B68DB6D3F229A40F6
:101EA400FB689A607B6800225A657B68012283F88C
:101EB4003520002318461837BD4680BD3F8010F0FA
:101EC40080B586B000AFF860B9607A603B600023EB
:101ED400FB75FB689B6D3B61FB6893F83430012B09
:101EE40001D1022340E0FB68012283F83420FB681F
:101EF40093F83530DBB2012B2FD1FB68022283F833
:101F04003520FB6800225A653B687A68B968F8682E
:101F140000F0E6F9FB68DB6D3F229A403B699A606A
:101F2400FB681B68FA681268126842F016021A60AD
:101F3400FB681B6C002B07D0FB681B68FA681268EF
:101F4400126842F008021A60FB681B68FA6812689B
:101F5400126842F001021A6005E0FB68002283F86F
:101F640034200223FB75FB7D18461837BD4680BD1F
:101F740080B483B000AF78607B6893F83530DBB20F
:101F8400022B04D07B6880225A6501230CE07B6815
:101F9400052283F835207B681B687A68126812680A
:101FA40022F001021A60002318460C37BD465DF882
:101FB400047B704780B586B000AF78600023BB60B7
:101FC400924B1B68924AA2FB03239B0A7B617B68AA
:101FD4009B6D3B613B691B68FB607B68DB6D082282
:101FE4009A40FB681340002B1AD07B681B681B685F
:101FF40003F00403002B13D07B681B687A68126813
:10200400126822F004021A607B68DB6D08229A4091
:102014003B699A607B685B6D43F001027B685A659B
:102024007B68DB6D01229A40FB681340002B12D0C1
:102034007B681B685B6903F08003002B0BD07B6813
:10204400DB6D01229A403B699A607B685B6D43F0CB
:1020540002027B685A657B68DB6D04229A40FB6848
:102064001340002B12D07B681B681B6803F002032B
:10207400002B0BD07B68DB6D04229A403B699A608D
:102084007B685B6D43F004027B685A657B68DB6D9B
:1020940010229A40FB681340002B43D07B681B68D6
:1020A4001B6803F00803002B3CD07B68DB6D102217
:1020B4009A403B699A607B681B681B6803F4802321
:1020C400002B18D07B681B681B6803F40023002BCB
:1020D40008D17B681B6C002B24D07B681B6C786850
:1020E40098471FE07B689B6C002B1BD07B689B6C24
:1020F4007868984716E07B681B681B6803F4807354
:10210400002B07D17B681B687A681268126822F07A
:1021140008021A607B681B6C002B03D07B681B6C65
:10212400786898477B68DB6D20229A40FB681340EF
:10213400002B00F08E807B681B681B6803F0100383
:10214400002B00F086807B68DB6D20229A403B697F
:102154009A607B6893F83530DBB2052B36D17B6807
:102164001B687A681268126822F016021A607B688B
:102174001B687A681268526922F080025A617B688F
:102184001B6C002B03D17B689B6C002B07D07B68F6
:102194001B687A681268126822F008021A607B6869
:1021A400DB6D3F229A403B699A607B68002283F88A
:1021B40034207B68012283F835207B681B6D002B5B
:1021C4007DD07B681B6D7868984778E07B681B68D6
:1021D4001B6803F48023002B1CD07B681B681B68DE
:1021E40003F40023002B08D17B685B6C002B30D0F8
:1021F4007B685B6C786898472BE07B68DB6B002B13
:1022040027D07B68DB6B7868984722E000000020C9
:10221400B5814E1B7B681B681B6803F48073002B1D
:102224000FD17B681B687A681268126822F010026A
:102234001A607B68002283F834207B68012283F8CB
:1022440035207B68DB6B002B03D07B68DB6B786805
:1022540098477B685B6D002B32D07B685B6D03F025
:102264000103002B22D07B68052283F835207B688C
:102274001B687A681268126822F001021A60BB684F
:102284000133BB607A69934207D87B681B681B687B
:1022940003F00103002BF2D100E000BF7B680022B1
:1022A40083F834207B68012283F835207B68DB6C5B
:1022B400002B05D07B68DB6C7868984700E000BF92
:1022C4001837BD4680BD00BF80B483B000AF7860CE
:1022D4007B685B6D18460C37BD465DF8047B704720
:1022E40080B485B000AFF860B9607A603B60FB6889
:1022F4001B68FA681268126822F480221A60FB686C
:102304001B683A685A60FB689B68402B08D1FB68DD
:102314001B687A689A60FB681B68BA68DA6007E031
:10232400FB681B68BA689A60FB681B687A68DA60A5
:1023340000BF1437BD465DF8047B704780B485B098
:1023440000AF78607B681B68DBB2103B144AA2FBC9
:1023540003231B09FB60134AFB6813441B781A46CA
:102364007B68DA65FB68032B09D97B681B6823F457
:102374007F7323F003031A1D7B689A6507E07B686B
:102384001B6823F47F7323F003037A6893657B68E7
:102394009B6D18461437BD465DF8047B704700BF3B
:1023A400ABAAAAAAC050000880B485B000AF786078
:1023B4000023FB737B689B6ABB607B689B69002B73
:1023C4001FD1BB68032B55D801A252F823F000BFDC
:1023D400E5230008F7230008E52300087924000812
:1023E4007B68DB6A03F08073002B45D00123FB7309
:1023F40042E07B68DB6AB3F1C07F3FD10123FB730A
:102404003CE07B689B69B3F5005F21D1BB68032B7B
:1024140036D801A252F823F02D24000833240008F2
:102424002D240008452400080123FB732FE07B685A
:10243400DB6A03F08073002B24D00123FB7321E0BB
:102444007B68DB6AB3F1C07F1ED10123FB731BE001
:10245400BB68022B02D9032B03D018E00123FB73C2
:1024640015E07B68DB6A03F08073002B0ED0012338
:10247400FB730BE000BF0AE000BF08E000BF06E00A
:1024840000BF04E000BF02E000BF00E000BFFB7B30
:1024940018461437BD465DF8047B704780B489B094
:1024A40000AF7860396000237B6100233B61002327
:1024B400BB610023FB6165E10122FB6902FA03F3BE
:1024C4007B613B681A687B6913403B613A697B69AD
:1024D4009A4240F054813B685B68012B0BD03B6807
:1024E4005B68022B07D03B685B68112B03D03B6809
:1024F4005B68122B30D17B689B68BB61FB695B0016
:10250400032202FA03F3DB43BA691340BB613B685D
:10251400DA68FB695B0002FA03F3BA691343BB612F
:102524007B68BA699A607B685B68BB610122FB695E
:1025340002FA03F3DB43BA691340BB613B685B688F
:102544001B0903F00102FB6902FA03F3BA6913439E
:10255400BB617B68BA695A607B68DB68BB61FB69F5
:102564005B00032202FA03F3DB43BA691340BB6145
:102574003B689A68FB695B0002FA03F3BA69134388
:10258400BB617B68BA69DA603B685B68022B03D085
:102594003B685B68122B23D1FB69DA087B6808323D
:1025A40053F82230BB61FB6903F007039B000F2241
:1025B40002FA03F3DB43BA691340BB613B681A694F
:1025C400FB6903F007039B0002FA03F3BA691343A0
:1025D400BB61FB69DA087B680832B96943F82210E9
:1025E4007B681B68BB61FB695B00032202FA03F38F
:1025F400DB43BA691340BB613B685B6803F00302C9
:10260400FB695B0002FA03F3BA691343BB617B689D
:10261400BA691A603B685B6803F08053002B00F0D2
:10262400AE800023FB605C4A5B4B5B6C43F48043ED
:102634005364594B5B6C03F48043FB60FB68574A5B
:10264400FB699B08023352F82330BB61FB6903F03A
:1026540003039B000F2202FA03F3DB43BA6913401E
:10266400BB617B684E4A934225D07B684D4A9342B6
:102674001FD07B684C4A934219D07B684B4A9342E3
:1026840013D07B684A4A93420DD07B68494A9342EF
:1026940007D07B68484A934201D106230CE0072304
:1026A4000AE0052308E0042306E0032304E00223F0
:1026B40002E0012300E00023FA6902F00302920021
:1026C4009340BA691343BB613449FB699B080233E5
:1026D400BA6941F82320394B1B68BB613B69DB4372
:1026E400BA691340BB613B685B6803F48033002B19
:1026F40003D0BA693B691343BB61304ABB691360B9
:102704002E4B5B68BB613B69DB43BA691340BB6119
:102714003B685B6803F40033002B03D0BA693B6960
:102724001343BB61254ABB695360244B9B68BB615F
:102734003B69DB43BA691340BB613B685B6803F4E4
:102744008013002B03D0BA693B691343BB611B4A56
:10275400BB699360194BDB68BB613B69DB43BA69B6
:102764001340BB613B685B6803F40013002B03D088
:10277400BA693B691343BB61104ABB69D360FB6907
:102784000133FB61FB690F2B7FF696AE00BF243744
:10279400BD465DF8047B70470038024000380140B4
:1027A400000002400004024000080240000C024005
:1027B400001002400014024000180240003C014096
:1027C40080B483B000AF78600B467B8013467B7087
:1027D4007B78002B03D07A887B689A6103E07B883E
:1027E4001A047B689A6100BF0C37BD465DF8047B10
:1027F400704780B483B000AF78600B467B807B6801
:102804005A697B881A407B889A4204D17B881A04CF
:102814007B689A6102E07A887B689A6100BF0C3712
:10282400BD465DF8047B704780B582B000AF0023DD
:102834007B6000233B60204A1F4B1B6C43F080539A
:1028440013641D4B1B6C03F080533B603B681B4BB4
:1028540001221A60FFF748F9786009E0FFF744F9AC
:1028640002467B68D31AB3F57A7F01D903231FE0AC
:10287400134B5B6803F48033B3F5803FEED1114B07
:1028840001221A60FFF730F9786009E0FFF72CF9AC
:1028940002467B68D31AB3F57A7F01D9032307E094
:1028A400074B5B6803F40033B3F5003FEED100231C
:1028B40018460837BD4680BD0038024040000E422D
:1028C4000070004044000E4280B586B002AF7860CC
:1028D400FFF70AF9F8607B68002B01D1012369E056
:1028E4007B6893F84130DBB2002B0BD17B6800226C
:1028F40083F840207868FEF7BDF841F288317868A3
:1029040000F09AFD7B681B687A681268126822F4EA
:10291400F8517A689268013A12020A431A607B6895
:102924009B6C0093FB6800222021786800F039FE3C
:102934000346FB72FB7A002B37D17B681A687B68ED
:102944001B681B6823F07F4323F0D0037968496830
:1029540008067968C96808437968C96908437968C9
:10296400096A01430B4313607B681A687B681B6820
:102974005968124B0B4079680969080479684969F8
:1029840008437968896901430B4353607B681B687A
:102994007A681268126842F001021A607B680022A9
:1029A4005A647B68012283F841207B68002283F803
:1029B4004020FB7A18461037BD4680BDFEF8E0FF84
:1029C40080B586B000AF78607B681B689B687B61CC
:1029D4007B681B681B683B617B6903F00403002B65
:1029E40064D03B6903F48023002B5FD07B681B68B1
:1029F4002033FB607B6893F84130DBB2122B25D186
:102A04001CE07B68DB6A002B0FD07B685B6A1A785A
:102A1400FB681A707B685B6A5A1C7B685A627B6825
:102A2400DB6A5A1E7B68DA6208E07B681B687A6896
:102A34001268126822F480221A6033E07B681B68F3
:102A44009B6803F00403002BDBD12BE07B6893F835
:102A54004130DBB2222B25D11DE07B689B6B002B20
:102A640010D07B681B6BFA681278D2B21A707B683C
:102A74001B6B5A1C7B681A637B689B6B5A1E7B68B2
:102A84009A6308E07B681B687A681268126822F40B
:102A940080221A6006E07B681B689B6803F00403CD
:102AA400002BDAD1786800F057FC42E17B6903F02F
:102AB4000203002B00F0B6803B6903F40033002BC3
:102AC40000F0B0807B681B680222DA607B681B68B8
:102AD4007A681268126822F4E0221A607B6893F81C
:102AE4004130DBB2122B23D17B681B681B6803F0D7
:102AF4000403002B11D07B681B687A681268126883
:102B040022F004021A607B68DB6B1B687A68D26B64
:102B14001268126822F001021A60786800F030FC32
:102B24007B68012283F841207868FDF729FDFDE0E8
:102B34007B6893F84130DBB2222B46D17B681B685B
:102B44001B6803F00403002B12D07B681B687A68AF
:102B54001268126822F004021A607B68DB6B1B683F
:102B64007A68D26B1268126822F001021A6021E0BE
:102B74007B681B682033FB6013E07B689B6B002B36
:102B840017D07B681B6BFA681278D2B21A707B6814
:102B94001B6B5A1C7B681A637B689B6B5A1E7B6891
:102BA4009A637B681B689B6803F47C53002BE4D115
:102BB40000E000BF786800F0E3FB7B68012283F843
:102BC40041207868FDF7BCFCB0E07B6893F84130A5
:102BD400DBB2022B07D17B68012283F8412078689D
:102BE400FDF7DEFCA2E07B6893F84130DBB2082BF2
:102BF40040F09C807B681B687A681268526922F0F6
:102C040040625A617B68012283F841207B685B6CD7
:102C1400002B03D1786800F081FB87E07868FDF72A
:102C24009FFC83E07B6903F00803002B1FD03B6902
:102C340003F40023002B1AD07B681B680822DA6097
:102C44007B681B681B6803F48003002B0BD07B6834
:102C54001B687A681268126822F410221A607B6872
:102C6400012283F841207868FDF7AAFC61E07B69C2
:102C740003F00103002B47D03B6903F48033002B9E
:102C840042D07B681B680122DA607B681B687A6823
:102C94001268126822F470221A607B685B6C43F03D
:102CA40002027B685A647B681B681B6803F0040398
:102CB400002B21D07B681B687A681268126822F0A6
:102CC40004021A607B68DB6B1C4A1A657B68DB6B49
:102CD4001846FFF74DF90346002B29D07B685B6C3F
:102CE40043F004027B685A647B68012283F8412024
:102CF4007868FDF735FC1BE07B68012283F84120EE
:102D04007868FDF72DFC13E07B6903F01003002BBA
:102D14000FD03B6903F48013002B0AD07B681B6837
:102D24001022DA60786800F021FB02E000BF00E0C6
:102D340000BF00BF1837BD4680BD00BF4135000845
:102D440080B586B002AF78603960FEF7CDFEB8601A
:102D54007B6893F84030DBB2012B01D1022351E0B0
:102D64007B68012283F840207B6893F84130DBB212
:102D7400012B40D17B6800225A647B68022283F8CD
:102D840041207B689B6C0093BB68002220217868FB
:102D940000F007FC0346FB73FB7B002B26D13B684A
:102DA4005B6A002B03D17B681B680322DA60002274
:102DB4003968786800F02CFC3B685B6A002B0CD106
:102DC4007B68002283F840207B681B687A6812685D
:102DD400126842F440321A6013E07B68012283F8DF
:102DE40041207B68002283F840200AE07B680022AF
:102DF40083F8402005E00223FB737B68002283F8FC
:102E04004020FB7B18461037BD4680BD80B584B09A
:102E140000AF786039600023FB737B681B681B6913
:102E24000133BB607B6893F84030DBB2012B01D1E6
:102E34000223E3E07B68012283F840207B6893F857
:102E44004130DBB2012B40F0D2807B6800225A640F
:102E54003B68002B00F0BE807B68DB6B5B69002B5A
:102E640003D17B68BA68DA6244E07B68DB6B5B6938
:102E7400B3F5006F1CD1BB6803F00103002B05D12F
:102E84007B689B6803F00103002B0CD07B685B6CB0
:102E940043F008027B685A640123FB737B680022B9
:102EA40083F8402026E0BB685A087B68DA6221E098
:102EB4007B68DB6B5B69B3F5805F1BD1BB6803F098
:102EC4000303002B05D17B689B6803F00303002BED
:102ED4000CD07B685B6C43F008027B685A64012366
:102EE400FB737B68002283F8402003E0BB689A08E8
:102EF4007B68DA62FB7B002B7FD17B68122283F82C
:102F040041207B681B680322DA607B68DA6A7B688D
:102F14009A627B683A685A627B681B687A681268AE
:102F2400526922F040625A617B68DB6B354ADA638E
:102F34007B68DB6B344A1A647B68DB6B334ADA6484
:102F44007B68DB6B00221A657B68DB6B40229A602E
:102F54007B68DB6B1B687A68D26B1268126822F09C
:102F6400C0017A68D26B92680A431A607B68D86B96
:102F740039687B681B6820331A467B689B6AFEF7B6
:102F84009FFF0346002B14D17B68002283F8402066
:102F94007B681B687A681268126842F480321A608F
:102FA4007B681B687A681268126842F004021A602F
:102FB40023E00123FB737B685B6C43F004027B68B2
:102FC4005A647B68012283F841207B68002283F8DD
:102FD400402012E07B685B6C43F008027B685A6413
:102FE4000123FB737B68002283F8402005E0022361
:102FF400FB737B68002283F84020FB7B1846103764
:10300400BD4680BD89340008D5340008F134000879
:1030140080B586B000AF786039600023FB757B68AB
:103024001B689B693B617B681B681B690133FB6000
:103034007B6893F84030DBB2012B01D10223EAE034
:103044007B68012283F840207B6893F84130DBB22F
:10305400012B40F0D9807B6800225A643B68002B26
:1030640000F0C5807B68DB6B5B69002B03D17B6858
:10307400FA689A6344E07B68DB6B5B69B3F5006FC5
:103084001CD1FB6803F00103002B05D17B689B680E
:1030940003F00103002B0CD07B685B6C43F0080247
:1030A4007B685A640123FB757B68002283F8402007
:1030B40026E0FB685A087B689A6321E07B68DB6B37
:1030C4005B69B3F5805F1BD1FB6803F00303002B3E
:1030D40005D17B689B6803F00303002B0CD07B684D
:1030E4005B6C43F008027B685A640123FB757B68C0
:1030F400002283F8402003E0FB689A087B689A6307
:10310400FB7D002B40F086807B68222283F84120DF
:103114007B681B680322DA607B689A6B7B685A635E
:103124007B683A681A637B68DB6B3D4ADA637B68C9
:10313400DB6B3C4A1A647B68DB6B3B4ADA647B6872
:10314400DB6B00221A657B68DB6B00229A607B686C
:10315400DB6B1B687A68D26B1268126822F0C001BC
:103164007A68D26B92680A431A607B68D86B7B6872
:103174001B68203319463A687B685B6BFEF7A0FE38
:103184000346002B22D17B681B687A681268526957
:1031940022F0406242F080625A617B681B683A699F
:1031A4009A617B68002283F840207B681B687A68F8
:1031B4001268126842F480321A607B681B687A686D
:1031C4001268126842F004021A6023E00123FB75BE
:1031D4007B685B6C43F004027B685A647B68012261
:1031E40083F841207B68002283F8402012E07B684A
:1031F4005B6C43F008027B685A640123FB757B68AF
:10320400002283F8402005E00223FB757B6800223E
:1032140083F84020FB7D18461837BD4680BD00BFAB
:1032240059340008B9340008F134000880B588B076
:1032340002AFF860B9607A60FEF756FC3861FB684B
:1032440093F84030DBB2012B01D1022362E0FB682A
:10325400012283F84020FB6893F84130DBB2012B54
:1032640051D1FB6800225A64FB68422283F8412052
:10327400FB689B6C00933B6900222021F86800F0F6
:1032840090F90346FB75FB7D002B37D1FB681B6867
:103294007A6812689A62FB681B687A6852685A6294
:1032A400FB681B687A689268DA62FB681B68FA68D4
:1032B4001268126822F440017A6810697A685269C7
:1032C40002430A431A60FB681B680922DA607B68C0
:1032D400DA68BB689A624FF00062B968F86800F077
:1032E40097F9FB68002283F84020FB681B68FA68A2
:1032F4001268126842F410221A600AE0FB68002285
:1033040083F8402005E00223FB75FB68002283F864
:103314004020FB7D18461837BD4680BD80B483B07D
:1033240000AF786000BF0C37BD465DF8047B704782
:1033340080B483B000AF786000BF0C37BD465DF841
:10334400047B704780B483B000AF786000BF0C3753
:10335400BD465DF8047B704780B483B000AF7860ED
:1033640000BF0C37BD465DF8047B704780B483B062
:1033740000AF786000BF0C37BD465DF8047B704732
:1033840080B584B000AF78600023FB737B6893F84A
:103394004130DBB203F00203002B46D07B680022ED
:1033A40083F840207B68082283F841207B681B68EF
:1033B4007A681268126822F4F8121A607B681B6833
:1033C4001B6803F00403002B1BD07B681B687A681E
:1033D4001268126822F004021A607B68DB6B154ADB
:1033E4001A657B68DB6B1846FEF7C2FD0346002BAB
:1033F4001BD07B68012283F841207868FFF78EFF99
:1034040013E07B681B680222DA607B681B687A68B9
:103414001268126842F400321A607B681B687A688A
:103424001268126842F002021A60FB7B18461037D9
:10343400BD4680BD4135000880B483B000AF7860DC
:1034440039607B683A689A6400BF0C37BD465DF802
:10345400047B704780B485B000AF78607B689B6B59
:10346400FB60FB6800229A63FB681B68FA681268B9
:10347400126842F400321A6000BF1437BD465DF88A
:10348400047B704780B485B000AF78607B689B6B29
:10349400FB60FB680022DA62FB681B68FA6812684A
:1034A400126842F400321A6000BF1437BD465DF85A
:1034B400047B704780B584B000AF78607B689B6BF9
:1034C400FB60F868FFF734FF00BF1037BD4680BDCE
:1034D40080B584B000AF78607B689B6BFB60F86854
:1034E400FFF730FF00BF1037BD4680BD80B584B004
:1034F40000AF78607B689B6BFB607868FEF7E4FE46
:103504000346022B16D0FB6800229A63FB68002254
:10351400DA62FB685B6C43F00402FB685A64FB6884
:103524001B68FA681268126822F004021A60F868CC
:10353400FFF726FF00BF1037BD4680BD80B584B0BD
:1035440000AF78607B689B6BFB60FB6800229A632A
:10355400FB680022DA62FB6893F84130DBB2082B87
:1035640014D1FB681B680222DA60FB681B68FA68E6
:103574001268126842F400321A60FB681B68FA6829
:103584001268126842F002021A6006E0FB68012227
:1035940083F84120F868FCF7E3FF00BF1037BD460D
:1035A40080BD80B584B000AFF860B9603B6013465D
:1035B400FB711AE0BB69B3F1FF3F16D0FEF794FA32
:1035C40002463B68D21ABB699A4202D8BB69002BF7
:1035D4000BD1FB68042283F84120FB685B6C43F049
:1035E4000102FB685A6401230EE0FB681B689A68B9
:1035F400BB681340002B14BF01230023DBB21A461F
:10360400FB799A42D6D1002318461037BD4680BDB7
:1036140080B485B000AFF860B9607A60BB685B6A5B
:10362400002B09D07B68B3F1406F05D0FB681B68A1
:10363400BA68926A013A1A61BB689B69002B00F070
:10364400B580BB681B6A002B5DD0FB681B68BA6839
:103654009268DA61BB68DB69002B30D0FB681B68B9
:10366400BA68D16ABA68126B1143BA68526B1143D3
:10367400BA68526A1143BA68526992041143BA682B
:1036840012691143BA68126A1143BA68D2681143C5
:10369400BA68D2691143BA6892691143BA68126868
:1036A40011437A680A435A617B68B3F1406F00F0B2
:1036B4002781FB681B68BA6852689A6120E1FB683D
:1036C4001B68BA68D16ABA68126B1143BA68526B44
:1036D4001143BA68526A1143BA6852699204114399
:1036E400BA6812691143BA68126A1143BA68D26996
:1036F4001143BA6892691143BA68126811437A682F
:103704000A435A61FCE0BB68DB69002B2DD0FB68DF
:103714001B68BA68D16ABA68126B1143BA68526BF3
:103724001143BA68526A1143BA6852699204114348
:10373400BA68126A1143BA68D2681143BA68D26986
:103744001143BA6892691143BA68126811437A68DE
:103754000A435A617B68B3F1406F00F0D180FB6883
:103764001B68BA6852689A61CAE0FB681B68BA6849
:10377400D16ABA68126B1143BA68526B1143BA68C2
:10378400526A1143BA68526992041143BA68126AC0
:103794001143BA68D2691143BA6892691143BA688D
:1037A400126811437A680A435A61A9E0BB681B6A2C
:1037B400002B56D0FB681B68BA689268DA61BB6854
:1037C400DB69002B2CD0FB681B68BA68D16ABA6825
:1037D400126B1143BA68526B1143BA68526A1143AF
:1037E400BA68526992041143BA6812691143BA68FB
:1037F400126A1143BA68D2681143BA68D269114394
:10380400BA68926911437A680A435A617B68B3F1D2
:10381400406F75D0FB681B68BA6852689A616FE0A4
:10382400FB681B68BA68D16ABA68126B1143BA683C
:10383400526B1143BA68526A1143BA6852699204CE
:103844001143BA6812691143BA68126A1143BA681B
:10385400D2691143BA68926911437A680A435A617A
:103864004EE0BB68DB69002B29D0FB681B68BA6893
:10387400D16ABA68126B1143BA68526B1143BA68C1
:10388400526A1143BA68526992041143BA68126ABF
:103894001143BA68D2681143BA68D2691143BA684D
:1038A400926911437A680A435A617B68B3F1406FA5
:1038B40026D0FB681B68BA6852689A6120E0BB682E
:1038C4005B6A002B1CD0FB681B68BA68D16ABA68B3
:1038D400126B1143BA68526B1143BA68526A1143AE
:1038E400BA68526992041143BA68126A1143BA68F9
:1038F400D2691143BA68926911437A680A435A61DA
:1039040000BF1437BD465DF8047B704780B584B0B2
:1039140000AF786039607B68002B01D10123CCE0D3
:10392400684B1B6803F00F023B689A420CD2654B4C
:103934003A68D2B21A70634B1B6803F00F023B68FB
:103944009A4201D00123B8E07B681B6803F00203AC
:10395400002B20D07B681B6803F00403002B05D0E8
:10396400594A594B9B6843F4E05393607B681B6846
:1039740003F00803002B05D0534A534B9B6843F4D0
:10398400604393605049504B9B6823F0F0027B687E
:103994009B6813438B607B681B6803F00103002B57
:1039A40044D07B685B68012B07D1474B1B6803F449
:1039B4000033002B19D101237FE07B685B68022B65
:1039C40003D07B685B68032B07D13F4B1B6803F074
:1039D4000073002B09D101236FE03B4B1B6803F0FC
:1039E4000203002B01D1012367E03749364B9B6862
:1039F40023F003027B685B6813438B60FEF774F863
:103A0400F8600AE0FEF770F80246FB68D31A41F248
:103A14008832934201D903234FE02B4B9B6803F078
:103A24000C027B685B689B009A42EBD1254B1B68B8
:103A340003F00F023B689A420CD9224B3A68D2B287
:103A44001A70204B1B6803F00F023B689A4201D0A6
:103A5400012332E07B681B6803F00403002B08D0C9
:103A64001949194B9B6823F4E0527B68DB681343C4
:103A74008B607B681B6803F00803002B09D0124994
:103A8400114B9B6823F460427B681B69DB00134382
:103A94008B6000F055F801460B4B9B681B0903F043
:103AA4000F030A4AD35C21FA03F3094A1360094B52
:103AB4001B681846FDF7D4FF002318461037BD468F
:103AC40080BD00BF003C024000380240A8500008FE
:103AD400000000200400002080B400AF034B1B68EA
:103AE4001846BD465DF8047B704700BF0000002007
:103AF40080B500AFFFF7F0FF0146054B9B689B0ABA
:103B040003F00703034AD35C21FA03F3184680BD8C
:103B140000380240B850000880B500AFFFF7DCFF62
:103B24000146054B9B685B0B03F00703034AD35C18
:103B340021FA03F3184680BD00380240B85000084B
:103B44002DE9F04F91B000AF00237B630023FB63AA
:103B540000233B630023FB620023BB639E4B9B68F3
:103B640003F00C030C2B00F22D8101A252F823F078
:103B7400A93B0008C93D0008C93D0008C93D00082B
:103B8400AF3B0008C93D0008C93D0008C93D000815
:103B9400B53B0008C93D0008C93D0008C93D0008FF
:103BA400CB3C00088D4BBB630FE18D4BBB630CE139
:103BB400894B5B6803F03F037B63874B5B6803F4CB
:103BC4008003002B23D0844B5B689B094FF00004D7
:103BD40040F2FF114FF0000203EA010304EA020479
:103BE4007F4A02FB04F1002202FB03F20A447C49EF
:103BF400A3FB0101531819467B6B4FF000041A46CE
:103C04002346FCF705FB03460C46FB634DE0724B71
:103C14005B689B094FF0000440F2FF114FF0000273
:103C240001EA030102EA04020B46144660017862C9
:103C3400786A40EAD36078625B013B62D7E9083472
:103C44005B1A64EB02044FEA841949EA93694FEA68
:103C54008318B8EB030869EB04094FEAC903FB6155
:103C6400FB6943EA5873FB614FEAC803BB61D7E9B8
:103C7400068918EB010849EB02094FEA89237B61A5
:103C84007B6943EA98537B614FEA88233B61D7E918
:103C94000489404649467B6B4FF000041A4623468C
:103CA400FCF7B6FA03460C46FB634B4B5B681B0CF4
:103CB40003F0030301335B003B63FA6B3B6BB2FB22
:103CC400F3F3BB6381E0444B5B6803F03F037B6326
:103CD400414B5B6803F48003002B23D03E4B5B68AD
:103CE4009B094FF0000440F2FF114FF0000203EA79
:103CF400010304EA02043A4A02FB04F1002202FB33
:103D040003F20A443649A3FB0101531819467B6B9D
:103D14004FF000041A462346FCF77AFA03460C4691
:103D2400FB6343E02C4B5B689B094FF0000440F2BB
:103D3400FF114FF0000201EA030102EA04020B46FC
:103D440014466001F860F86840EAD360F8605B01EB
:103D5400BB60D7E902345B1A64EB0204A60146EAAD
:103D640093669D01ED1A66EB0406F3007B607B68A5
:103D740043EA55737B60EB003B6097E860006D1885
:103D840046EB02064FEA862B4BEA955B4FEA852AFF
:103D940055465E46284631467B6B4FF000041A4672
:103DA4002346FCF735FA03460C46FB630A4B5B6873
:103DB4001B0F03F00703FB62FA6BFB6AB2FBF3F31E
:103DC400BB6302E0054BBB6300BFBB6B18464437C3
:103DD400BD46BDE8F08F00BF003802400024F40067
:103DE40040787D0180B586B000AF786000233B61E8
:103DF4007B681B6803F00103002B00F08380954B64
:103E04009B6803F00C03042B19D0924B9B6803F0BE
:103E14000C03082B06D18F4B5B6803F48003B3F5C6
:103E2400800F0CD08B4B9B6803F00C030C2B12D12E
:103E3400884B5B6803F48003B3F5800F0BD1854B8B
:103E44001B6803F40033002B5BD07B685B68002B9A
:103E540057D1012316E27B685B68B3F5803F06D136
:103E64007C4A7C4B1B6843F4803313601DE07B6801
:103E74005B68B3F5A02F0CD1764A764B1B6843F4EC
:103E840080231360734A734B1B6843F480331360BD
:103E94000BE0704A6F4B1B6823F4803313606D4A48
:103EA4006C4B1B6823F4802313607B685B68002BD6
:103EB40013D0FDF719FE386108E0FDF715FE024640
:103EC4003B69D31A642B01D90323DBE1614B1B68E3
:103ED40003F40033002BF0D014E0FDF705FE386145
:103EE40008E0FDF701FE02463B69D31A642B01D9B1
:103EF4000323C7E1574B1B6803F40033002BF0D1B5
:103F040000E000BF7B681B6803F00203002B6FD046
:103F1400504B9B6803F00C03002B17D04D4B9B6850
:103F240003F00C03082B05D14A4B5B6803F48003B0
:103F3400002B0BD0474B9B6803F00C030C2B1CD1BC
:103F4400444B5B6803F48003002B16D1414B1B6880
:103F540003F00203002B05D07B68DB68012B01D042
:103F640001238FE13B493B4B1B6823F0F8027B683C
:103F74001B69DB0013430B603AE07B68DB68002BB2
:103F840020D0354B01221A60FDF7AEFD386108E000
:103F9400FDF7AAFD02463B69D31A022B01D903237C
:103FA40070E12C4B1B6803F00203002BF0D029496D
:103FB400284B1B6823F0F8027B681B69DB00134362
:103FC4000B6015E0244B00221A60FDF78DFD38616B
:103FD40008E0FDF789FD02463B69D31A022B01D99B
:103FE40003234FE11B4B1B6803F00203002BF0D1AA
:103FF4007B681B6803F00803002B37D07B685B6980
:10400400002B16D0154B01221A60FDF76DFD3861A7
:1040140008E0FDF769FD02463B69D31A022B01D97A
:1040240003232FE10B4B5B6F03F00203002BF0D053
:104034001CE00A4B00221A60FDF756FD38610FE0C0
:10404400FDF752FD02463B69D31A022B08D903231C
:1040540018E100BF0038024000004742800E47428A
:104064008A4B5B6F03F00203002BE9D17B681B686A
:1040740003F00403002B00F097800023FB75834BAF
:104084001B6C03F08053002B0FD10023FB607F4A8D
:104094007E4B1B6C43F0805313647C4B1B6C03F00E
:1040A4008053FB60FB680123FB75794B1B6803F4A9
:1040B4008073002B18D1764A754B1B6843F48073C8
:1040C4001360FDF711FD386108E0FDF70DFD0246B0
:1040D4003B69D31A022B01D90323D3E06C4B1B6831
:1040E40003F48073002BF0D07B689B68012B06D10E
:1040F400664A664B1B6F43F0010313671CE07B6841
:104104009B68052B0CD1614A604B1B6F43F0040381
:1041140013675E4A5D4B1B6F43F0010313670BE0AB
:104124005A4A5A4B1B6F23F001031367574A574BE4
:104134001B6F23F0040313677B689B68002B15D067
:10414400FDF7D2FC38610AE0FDF7CEFC02463B697C
:10415400D31A41F28832934201D9032392E04B4BA4
:104164001B6F03F00203002BEED014E0FDF7BCFC40
:1041740038610AE0FDF7B8FC02463B69D31A41F204
:104184008832934201D903237CE0404B1B6F03F038
:104194000203002BEED1FB7D012B05D13B4A3B4BA7
:1041A4001B6C23F0805313647B689B69002B68D0DD
:1041B400364B9B6803F00C03082B60D07B689B692B
:1041C400022B45D1334B00221A60FDF78DFC386178
:1041D40008E0FDF789FC02463B69D31A022B01D99A
:1041E40003234FE0294B1B6803F00073002BF0D12D
:1041F40026497B68DA697B681B6A1A437B685B6AB9
:104204009B011A437B689B6A5B08013B1B041A43AE
:104214007B68DB6A1B061A437B681B6B1B07134313
:104224004B601C4B01221A60FDF75EFC386108E00C
:10423400FDF75AFC02463B69D31A022B01D903232A
:1042440020E0124B1B6803F00073002BF0D018E041
:10425400104B00221A60FDF747FC386108E0FDF7B7
:1042640043FC02463B69D31A022B01D9032309E01C
:10427400064B1B6803F00073002BF0D101E001230F
:1042840000E0002318461837BD4680BD00380240C0
:10429400007000406000474280B582B000AF786093
:1042A4007B68002B01D101233FE07B6893F8393010
:1042B400DBB2002B06D17B68002283F838207868B3
:1042C400FCF75AFD7B68242283F839207B681B683D
:1042D4007A681268D26822F40052DA60786800F0D2
:1042E400A1FA7B681B687A681268126922F490420A
:1042F4001A617B681B687A681268526922F02A0284
:104304005A617B681B687A681268D26842F400526A
:10431400DA607B680022DA637B68202283F8392024
:104324007B68202283F83A20002318460837BD46CC
:1043340080BD80B485B000AFF860B9601346FB80DF
:10434400FB6893F83930DBB2202B30D1BB68002BEB
:1043540002D0FB88002B01D1012329E0FB6893F8EC
:104364003830012B01D1022322E0FB68012283F8BB
:104374003820FB68BA681A62FB68FA889A84FB687A
:10438400FA88DA84FB680022DA63FB68212283F866
:104394003920FB68002283F83820FB681B68FA6820
:1043A4001268D26842F08002DA60002300E002233F
:1043B40018461437BD465DF8047B704780B588B055
:1043C40000AF78607B681B681B68FB617B681B68B7
:1043D400DB68BB617B681B685B697B6100233B61B5
:1043E4000023FB60FB6903F00F033B613B69002B77
:1043F4000DD1FB6903F02003002B08D0BB6903F047
:104404002003002B03D0786800F08BF9D1E03B69DE
:10441400002B00F0B0807B6903F00103002B05D171
:10442400BB6903F49073002B00F0A580FB6903F0D3
:104434000103002B0AD0BB6903F48073002B05D061
:104444007B68DB6B43F001027B68DA63FB6903F092
:104454000403002B0AD07B6903F00103002B05D071
:104464007B68DB6B43F002027B68DA63FB6903F071
:104474000203002B0AD07B6903F00103002B05D053
:104484007B68DB6B43F004027B68DA63FB6903F04F
:104494000803002B0FD0BB6903F02003002B04D1C9
:1044A4007B6903F00103002B05D07B68DB6B43F0D1
:1044B40008027B68DA637B68DB6B002B78D0FB69CE
:1044C40003F02003002B07D0BB6903F02003002B6B
:1044D40002D0786800F025F97B681B685B6903F0FB
:1044E4004003402B0CBF01230023DBB2FB607B683D
:1044F400DB6B03F00803002B02D1FB68002B31D0E7
:10450400786800F06FF87B681B685B6903F0400310
:10451400402B23D17B681B687A681268526922F0A9
:1045240040025A617B685B6B002B13D07B685B6B2A
:10453400214A1A657B685B6B1846FDF719FD034633
:10454400002B16D07B685B6B1B6D7A68526B104630
:1045540098470EE0786800F03BF80AE0786800F0CD
:1045640037F806E0786800F033F87B680022DA63F5
:104574001EE000BF1CE0FB6903F08003002B08D0A1
:10458400BB6903F08003002B03D0786800F05CF86B
:104594000FE0FB6903F04003002B0AD0BB6903F072
:1045A4004003002B05D0786800F0A3F800BF00E0BA
:1045B40000BF2037BD4680BD2546000880B483B0C7
:1045C40000AF786000BF0C37BD465DF8047B7047D0
:1045D40080B483B000AF786000BF0C37BD465DF88F
:1045E400047B704780B483B000AF78607B681B683D
:1045F4007A681268D26822F49072DA607B681B6869
:104604007A681268526922F001025A617B6820229A
:1046140083F83A2000BF0C37BD465DF8047B704731
:1046240080B584B000AF78607B689B6BFB60FB68EF
:104634000022DA85FB680022DA84F868FFF7C8FFF5
:1046440000BF1037BD4680BD80B485B000AF786030
:104654007B6893F83930DBB2212B43D17B689B68AC
:10466400B3F5805F19D17B681B6AFB607B681B68AC
:10467400FA681288C2F308025A607B681B69002B2F
:1046840005D17B681B6A9A1C7B681A620EE07B6802
:104694001B6A5A1C7B681A6208E07B681A687B688C
:1046A4001B6A581C796808621B7853607B68DB8C32
:1046B4009BB2013B9BB27A681946D184002B0FD17F
:1046C4007B681B687A681268D26822F08002DA601C
:1046D4007B681B687A681268D26842F04002DA602C
:1046E400002300E0022318461437BD465DF8047B1E
:1046F400704780B582B000AF78607B681B687A68C9
:104704001268D26822F04002DA607B68202283F8C3
:1047140039207868FBF704FF002318460837BD46A4
:1047240080BD80B584B000AF78607B6893F83A3080
:10473400DBB2222B71D17B689B68B3F5805F23D1F8
:104744007B689B6AFB607B681B69002B0ED17B68CE
:104754001B685B689BB2C3F308039AB2FB681A80B8
:104764007B689B6A9A1C7B689A6229E07B681B6859
:104774005B689BB2DBB29AB2FB681A807B689B6A67
:104784005A1C7B689A621BE07B681B69002B0AD168
:104794007B689B6A591C7A6891627A6812685268CD
:1047A400D2B21A700CE07B689B6A591C7A689162D9
:1047B4007A6812685268D2B202F07F02D2B21A70DA
:1047C4007B68DB8D9BB2013B9BB27A681946D1852D
:1047D400002B20D17B681B687A681268D26822F0AB
:1047E4002002DA607B681B687A681268D26822F457
:1047F4008072DA607B681B687A681268526922F0FA
:1048040001025A617B68202283F83A207868FFF716
:10481400D5FE002302E0002300E0022318461037EF
:10482400BD4680BD2DE9F04FA3B000AFF867FB6F24
:104834001968FB6F1B681B6923F44052FB6FDB682C
:1048440013430B61FB6F9A68FB6F1B691A43FB6F81
:104854005B691A43FB6FDB691343C7F88430FB6F52
:104864001968FB6F1B68DB6823F4164222F00C0204
:10487400D7F884301343CB60FB6F1968FB6F1B6858
:104884005B6923F44072FB6F9B6913434B61FB6FBD
:10489400DB69B3F5004F40F07181FB6F1B68B44ACC
:1048A400934205D0FB6F1B68B24A934240F0B1803B
:1048B400FFF732F9C7F88000FB6F1D68D7F8803026
:1048C40019464FF000020B461446DB1844EB04046F
:1048D4005B1844EB0204E0007864786C40EA53709F
:1048E4007864DB003B64D7E9103413EB010844EB34
:1048F400020940464946FB6F5B684FF00004DB1831
:1049040044EB04041A462346FBF782FC03460C4698
:104914001A46994BA3FB02235B091E01D7F880308A
:1049240019464FF000020B461446DB1844EB04040E
:104934005B1844EB0204E000F863F86B40EA537040
:10494400F863DB00BB63D7E90E3413EB010844EBD7
:10495400020940464946FB6F5B684FF00004DB18D0
:1049640044EB04041A462346FBF752FC03460C4668
:104974001A46814BA3FB02135B09642101FB03F379
:10498400D31ADB0032337C4AA2FB03235B095B00AE
:1049940003F4F8731E44D7F8803019464FF0000230
:1049A4000B461446DB1844EB04045B1844EB020486
:1049B400E0007863786B40EA53707863DB003B6314
:1049C400D7E90C3413EB010844EB0209404649468D
:1049D400FB6F5B684FF00004DB1844EB04041A46D9
:1049E4002346FBF715FC03460C461A46624BA3FB11
:1049F40002135B09642101FB03F3D31ADB00323396
:104A04005D4AA2FB03235B0903F007033344AB6055
:104A140040E2FFF76DF8C7F88000FB6F1A683A6749
:104A2400D7F8803019464FF000020B461446DB18C5
:104A340044EB04045B1844EB0204E000F862F86AF7
:104A440040EA5370F862DB00BB62D7E90A345D18B0
:104A540044EB020628463146FB6F5B684FF00004C6
:104A6400DB1844EB04041A462346FBF7D1FB034648
:104A74000C461A46404BA3FB02235B091E01D7F8E0
:104A8400803019464FF000020B461446DB1844EB05
:104A940004045B1844EB02044FEAC40B4BEA537B57
:104AA4004FEAC30A53465C4613EB010A44EB020B7C
:104AB40050465946FB6F5B684FF00004DB1844EB2B
:104AC40004041A462346FBF7A3FB03460C461A4686
:104AD400294BA3FB02135B09642101FB03F3D31AE3
:104AE400DB003233244AA2FB03235B095B0003F49B
:104AF400F8731E44D7F8803019464FF000020B4675
:104B04001446DB1844EB04045B1844EB02044FEA3C
:104B1400C40949EA53794FEAC30843464C4613EBA8
:104B2400010844EB020940464946FB6F5B684FF0BD
:104B34000004DB1844EB04041A462346FBF768FB25
:104B440003460C461A460C4BA3FB02135B09642173
:104B540001FB03F3D31ADB003233074AA2FB03231E
:104B64005B0903F0070333443A6F936092E100BF9B
:104B740000100140001401401F85EB51FB6F1A68BF
:104B8400C14B9A4205D0FB6F1A68C04B9A4240F061
:104B9400BF80FEF7C1FFC7F88000FB6F1E68D7F81F
:104BA400803019464FF000020B461446DB1844EBE4
:104BB40004045B1844EB0204E0007862786A40EA7B
:104BC40053707862DB003B62D7E9083413EB0108C9
:104BD40044EB020940464946FB6F5B684FF0000412
:104BE400A200FA65FA6D42EA9372FA659B00BB650E
:104BF400D7E91623FBF70CFB03460C461A46A44BD5
:104C0400A3FB02235B091D01D7F8803019464FF03E
:104C140000020B461446DB1844EB04045B1844EB17
:104C24000204E000F861F86940EA5370F861DB00BF
:104C3400BB61D7E9063413EB010844EB0209404693
:104C44004946FB6F5B684FF00004A2007A657A6DF9
:104C540042EA93727A659B003B65D7E91423FBF71C
:104C6400D7FA03460C461A46894BA3FB02135B0989
:104C7400642101FB03F3D31A1B013233844AA2FBE0
:104C840003235B0903F0F0031D44D7F88030194671
:104C94004FF000020B461446DB1844EB04045B1887
:104CA40044EB0204E0007861786940EA537078616B
:104CB400DB003B61D7E9043413EB010844EB020940
:104CC40040464946FB6F5B684FF00004A200FA645B
:104CD400FA6C42EA9372FA649B00BB64D7E912232C
:104CE400FBF796FA03460C461A46694BA3FB0213DC
:104CF4005B09642101FB03F3D31A1B013233644AB9
:104D0400A2FB03235B0903F00F032B44B360C1E050
:104D1400FEF7EEFEC7F88000FB6F1B68BB65D7F893
:104D2400803019464FF000020B461446DB1844EB62
:104D340004045B1844EB0204E60046EA5376DD0003
:104D44002B4634465D1844EB020628463146FB6F79
:104D54005B684FF00004A5007D677D6F45EA93759D
:104D64007D679C003C67D7E91C23FBF751FA034697
:104D74000C461A46464BA3FB02135B091D01D7F8E8
:104D8400803019464FF000020B461446DB1844EB02
:104D940004045B1844EB0204E000F860F86840EA9D
:104DA4005370F860D800B860D7E9023413EB0108F7
:104DB40044EB020940464946FB6F5B684FF0000430
:104DC400A600FE66FE6E46EA9376FE669C00BC660E
:104DD400D7E91A23FBF71CFA03460C461A462C4B58
:104DE400A3FB02135B09642101FB03F3D31A1B0128
:104DF4003233274AA2FB03135B0903F0F0031D447B
:104E0400D7F8803019464FF000020B461446DB18E1
:104E140044EB04045B1844EB0204E0007860786817
:104E240040EA53707860D800386097E8180013EBB4
:104E3400010844EB020940464946FB6F5B684FF0AA
:104E44000004A6007E667E6E46EA93767E669C002B
:104E54003C66D7E91823FBF7DBF903460C461A46F0
:104E64000B4BA3FB02135B09642101FB03F3D31A6D
:104E74001B013233064AA2FB03135B0903F00F0341
:104E84002B44BA6D936005E000100140001401400A
:104E94001F85EB5100BF8C37BD46BDE8F08F00BFC6
:104EA400DFF834D0002103E00C4B5B58435004314D
:104EB4000B480C4B42189A42F6D30B4A02E00023EB
:104EC40042F8043B094B9A42F9D3FBF715FF00F073
:104ED40011F8FBF71BFC704700000220D8500008B3
:104EE400000000200C0000200C00002048020020DC
:104EF400FEE7000070B50D4E0D4CA41BA410002558
:104F0400A54209D10B4E0C4C00F02CF8A41BA410A4
:104F14000025A54205D170BD56F8253098470135C6
:104F2400EEE756F8253098470135F2E7D0500008EF
:104F3400D0500008D0500008D450000810B5431ECB
:104F44000A44914200D110BD11F8014B03F8014FFE
:104F5400F7E702440346934200D1704703F8011B6C
:104F6400F9E70000F8B500BFF8BC08BC9E467047DE
:0C4F7400F8B500BFF8BC08BC9E467047B2
:104F800030313233343536373839313031313132EE
:104F900031333134313531363137313831393230DE
:104FA00032313232323332343235323632373238CD
:104FB00032393330333133323333333433353336BC
:104FC00033373338333934303431343234333434A2
:104FD0003435343634373438343935303531353288
:104FE000353335343535353635373538353936306E
:104FF000363136323633363436353636363736385D
:10500000363937303731373237333734373537364B
:105010003737373837393830383138323833383431
:105020003835383638373838383939303931393217
:105030003933393439353936393739383939313006
:10504000303130313130323130333130343130354C
:10505000313036313037313038313039313130312B
:105060003131313132313133313134313135313126
:105070003631313731313831313931323031323105
:10508000000000000D0A206661737420726561647F
:10509000207175616420696F206166746572206596
:1050A00072617365200D0A0000000000000000001E
:1050B00001020304060708090000000001020304BE
:0850C000000610160006101690
:0850C8007CB1FF7F0100000034
:0450D000E9010008EA
:0450D400C50100080A
:0C50D8000024F4001000000001000000A3
:0400000508004EA5FC
:00000001FF
